{"abi":[{"type":"constructor","inputs":[{"name":"initValue","type":"int32","internalType":"int32"}],"stateMutability":"nonpayable"},{"type":"function","name":"getValue","inputs":[],"outputs":[{"name":"","type":"int32","internalType":"int32"}],"stateMutability":"view"},{"type":"function","name":"setValue","inputs":[{"name":"newValue","type":"int32","internalType":"int32"}],"outputs":[],"stateMutability":"nonpayable"},{"type":"event","name":"ValueChanged","inputs":[{"name":"newValue","type":"int32","indexed":false,"internalType":"int32"}],"anonymous":false}],"bytecode":{"object":"0x6080604052348015600e575f5ffd5b506040516102623803806102628339818101604052810190602e9190608a565b805f5f6101000a81548163ffffffff021916908360030b63ffffffff1602179055505060b0565b5f5ffd5b5f8160030b9050919050565b606c816059565b81146075575f5ffd5b50565b5f815190506084816065565b92915050565b5f60208284031215609c57609b6055565b5b5f60a7848285016078565b91505092915050565b6101a5806100bd5f395ff3fe608060405234801561000f575f5ffd5b5060043610610034575f3560e01c80632035863f146100385780632096525514610054575b5f5ffd5b610052600480360381019061004d919061011c565b610072565b005b61005c6100ce565b6040516100699190610156565b60405180910390f35b805f5f6101000a81548163ffffffff021916908360030b63ffffffff1602179055507fb92374e81f92cfb0d806c475cdfb5055e6528dde40125e2ba0510471d8ade169816040516100c39190610156565b60405180910390a150565b5f5f5f9054906101000a900460030b905090565b5f5ffd5b5f8160030b9050919050565b6100fb816100e6565b8114610105575f5ffd5b50565b5f81359050610116816100f2565b92915050565b5f60208284031215610131576101306100e2565b5b5f61013e84828501610108565b91505092915050565b610150816100e6565b82525050565b5f6020820190506101695f830184610147565b9291505056fea264697066735822122066a9386efb6cfd76e95edf9fd381c65163227ed6e68f83c0b4236377db03a59a64736f6c634300081c0033","linkReferences":{}},"methodIdentifiers":{"getValue()":"20965255","setValue(int32)":"2035863f"},"id":25}